:1000000078FF7600D8FCC27F75300375334051E627
:1000100075300375310175320351B87730097701B6
:10002000307F02770275310275320251B8772509A7
:0E003000772E09773409772509773275310369
:10003E0075320151B8772D09772109773009770A82
:10004E0009772E09772F75310575320351B8770E62
:10005E0009770E715C715EB446027430C39430C37E
:0F006E00B4080050F0F534F533753105753203E1
:10007D0051B8A733712C715EB446027430C39430FD
:10008D00C3B40A0050F0F535F533753105753204FA
:10009D0051B8A733712C75071379C085343CE535FC
:0F00AD0075F013A4F53AC0019104D001A73D09E5
:0E00BC00053AD507F2753340753001307F03E9
:1000CA0075300251E67940307F027980097701095B
:0F00DA0077020977030977040977050977060983
:0F00E90077077940307F027980E92408F9772181
:0F00F8002408F977222408F977232408F97724BC
:0F0107002408F977252408F977262408F97727A3
:1001160076C0753100753201E6C33340030880F8B6
:0F01260005317532003305325002316333053233
:1001350050023163330532500231633305325002C8
:100145003163330532500231633305325002316376
:1001550033053250023163E531B407BD800CC0E090
:0F01650008863351B8A733D0E022B27F307F0332
:1001740002000875370C75380CC27FB27F753003E6
:1001840075334051E675310175320351B877300942
:0F0194007701307F02770275310275320251B860
:0E01A300772509772E097734097725097732F9
:1001B10075310375320151B8770F09770909770F46
:0F01C10009770A09773409772F753104753203EE
:1001D00051B8772209772509772709772909772EDA
:1001E00075310575320251B87734097735097732A0
:1001F00009772E715C715EB539FB753001307F0374
:10020000753002715C7534FF7535FF715EB438026C
:1002100080F3C3B441004004F5348002F535715ECB
:0F022000B4380280E0C3B441004004F5348002DA
:10022F00F535E534B4FF0280CDE535B4FF0280C665
:0F023F00715EB439C1853532E534C39410F531A1
:0F024E00753002307F0375300151B8E7240AF78D
:10025D00B44E028009207F04153880021537712CA9
:0F026D00715EB439FBE537600AE5386002217F26
:10027C00C27F8004D27F800075300375334051E615
:10028C0075300375310175320351B8773009770138
:10029C00307F02770275310275320251B877370917
:0F02AC00772909772E097733715C80FEE530C31F
:1002BB00B40200500679407E7F800FB403005006D5
:1002CB0079807EBF800479C07EFF207D12AF31E93B
:0F02DB002408DFFCAF3204DFFDF922D27D80CE94
:0F02EA00C27DE9A7330904B506F6A733227F08C2
:0F02F9008008E493715DA3DFF922E53330E7005D
:1003080020E60D20E50590048C800890048C80037D
:0F03180090048C541F600BA3A3A3A3A3A3A3A3C0
:0F032700D5E0F580CF75310751B88733207E04BC
:1003360051F78019E533B44E03753343C3944EC366
:0F034600B40A0050037533427533418000E9C398
:0F0355009408F9D531D62222227580FF75A000B9
:10036400E580540FB40FF671D7E580540FB40F0233
:1003740080F571D7E580540FB40F0280EA75A0FEB2
:0E038400E580540FB40F2175A0FDE580540FE5
:10039200B40F1C75A0FBE580540FB40F1775A0F7BE
:0F03A200E580540FB40F1202036B9003C7800D58
:1003B1009003CB80089003CF80039003D3135003A5
:1003C100A380FAE49322313233413435364237384F
:1003D100394347464544C000C0017F017E01DEFE2E
:1003E100DFFAD001D00022C0E012042874A0253C1D
:1003F100120442E53A120442E53B1204421204356A
:0F040100D0E022C0E012042874A0253C1204426F
:0F041000E53A12044212042874A1253C1204425A
:10041F0012045E120435D0E022D2A500D2A400004F
:10042F00C2A500C2A422C2A500D2A40000D2A5007A
:0E043F00C2A422C0077F003392A51204780FDA
:10044D00BF08F6D2A520A5FD12047F120478D007AF
:0E045D0022C0077F00D2A5A2A5120478330F9B
:10046B00BF08F6D2A5120478F53DD00722D2A4001E
:10047B0000C2A42275330B7532FFD532FDD533F78D
:01048B00224E
:00000001FF
